:1000000012C02CC02BC02AC029C028C027C026C0BF
:1000100025C024C023C022C021C020C01FC01EC0D4
:100020001DC01CC01BC011241FBECFE5D4E0DEBF25
:10003000CDBF10E0A0E6B0E0E8EDF5E002C005902D
:100040000D92A837B107D9F720E0A8E7B0E001C0CA
:100050001D92AC37B207E1F702D1BCC2D1CF84B355
:10006000816084BB089585B3816085BB85E08A95F6
:10007000F1F785B38E7F85BB089580E090E0DC01C9
:1000800005C099990AC00196A11DB11D803C27E2C7
:10009000920729E0A207B105A0F3803C9742A9404E
:1000A000B10579F11FBC82E08EBD1DBC1CBC80E097
:1000B00090E0DC010AC0999B0FC02CB53DB52136FC
:1000C0003A4E50F40196A11DB11D803C27E29207E3
:1000D00029E0A207B10578F3803C9742A940B10519
:1000E00099F08CB59DB5A0E0B0E01EBC81362AEE3B
:1000F0009207A105B10558F4B695A79597958795F0
:1001000008958FEF9FEF08958EEF9FEF08958EEF84
:100110009FEF089592B39F70282F207F922B92BB60
:1001200092B39E7F92BB92B3926092BB000092B357
:100130009D7F92BB32E43A95F1F700C022B330E1E3
:10014000839FC0011124922F9F70892B82BB82B3A1
:10015000826082BB000082B38D7F82BB83EF91E01F
:100160000197F1F700C0000008958FEF81BB85EA89
:100170009EE00197F1F700C0000082E0CBDF88E24B
:10018000C9DF8CE0C7DF86E0C5DF81E0C3DF83EF36
:1001900091E00197F1F700C00000089581E0BADF17
:1001A00083EF91E00197F1F700C0000080E8B2DF33
:1001B0000895FC0160E070E02CC082B38F70907FE6
:1001C000982B92BB82B3816082BB82B3826082BB78
:1001D000000082B38D7F82BB82E48A95F1F700C074
:1001E00042B39C9180E1989F90011124942F9F70BD
:1001F000292B22BB92B3926092BB000092B39D7FE9
:1002000092BB83EF91E00197F1F700C000006F5FB0
:100210007F4FDF01A60FB71F9C919111CECF08959C
:10022000CF93DF9300D0CDB7DEB790E8998390EC01
:100230009A83E62FF0E0319721E030E02C0F3D1F4C
:10024000E20FF31F9081890F815064DF31E23A950C
:10025000F1F700000F900F90DF91CF910895CF93A9
:10026000DF9300D000D0CDB7DEB77FDF87EA91E61D
:100270000197F1F700C00000F2DE84B38C6384BB09
:1002800081B3846081BBEFDEF8DE8F3F2FEF9207F2
:1002900039F461E081E0C4DF80E690E08ADFF3CFEB
:1002A000BC0180E090E072D026E933E44BE05DE3EE
:1002B000D3D020E030E040E05FE3CED036D0709382
:1002C0007B0060937A0020917800309179002617A6
:1002D000370709F063DF61E081E0A2DF87E690E0A5
:1002E00068DF61E08CE09CDF4AE0BE016F5F7F4F1A
:1002F00080917A0090917B003AD1CE01019659DF2E
:1003000061E08EE08DDF83E790E053DF80917A003B
:1003100090917B0090937900809378008BE49DE12D
:100320000197F1F700C00000AECF04D06894B1117E
:100330008DC0089570D088F09F5790F0B92F9927FD
:10034000B751A0F0D1F0660F771F881F991F1AF0E0
:10035000BA95C9F712C0B13081F077D0B1E00895F5
:1003600074C0672F782F8827B85F39F0B93FCCF376
:10037000869577956795B395D9F73EF490958095D6
:10038000709561957F4F8F4F9F4F0895E89409C0F6
:1003900097FB3EF490958095709561957F4F8F4FB8
:1003A0009F4F9923A9F0F92F96E9BB279395F695CE
:1003B000879577956795B795F111F8CFFAF4BB0F4C
:1003C00011F460FF1BC06F5F7F4F8F4F9F4F16C0B0
:1003D000882311F096E911C0772321F09EE8872F3A
:1003E000762F05C0662371F096E8862F70E060E0F6
:1003F0002AF09A95660F771F881FDAF7880F96956F
:10040000879597F9089557FD9058440F551F59F057
:100410005F3F71F04795880F97FB991F61F09F3FF1
:1004200079F087950895121613061406551FF2CF1A
:100430004695F1DF08C0161617061806991FF1CF6A
:1004400086957105610508940895E894BB27662791
:100450007727CB0197F908950BD078C069D028F0A1
:100460006ED018F0952309F05AC05FC01124EECF6A
:10047000CADFA0F3959FD1F3950F50E0551F629FFF
:10048000F001729FBB27F00DB11D639FAA27F00DED
:10049000B11DAA1F649F6627B00DA11D661F829F14
:1004A0002227B00DA11D621F739FB00DA11D621FF9
:1004B000839FA00D611D221F749F3327A00D611D16
:1004C000231F849F600D211D822F762F6A2F1124F8
:1004D0009F5750408AF0E1F088234AF0EE0FFF1F4B
:1004E000BB1F661F771F881F91505040A9F79E3F82
:1004F000510570F014C0AACF5F3FECF3983EDCF3D7
:10050000869577956795B795F795E7959F5FC1F7BE
:10051000FE2B880F911D9695879597F9089597F969
:100520009F6780E870E060E008959FEF80EC089599
:1005300000240A94161617061806090608950024C2
:100540000A9412161306140605060895092E03943C
:10055000000C11F4882352F0BB0F40F4BF2B11F4B0
:1005600060FF04C06F5F7F4F8F4F9F4F0895BB2781
:100570004A3031F4992322F4BDE2909581959F4F42
:1005800001C0BB27FB015527AA27880F991FAA1F67
:10059000A41710F0A41B83955051B9F7A05DAA339E
:1005A00008F0A95DA193009779F7B111B193119269
:1005B000CB0100C0DC01FC01672F71917723E1F7CB
:1005C000329704C07C916D9370836291AE17BF0720
:0805D000C8F30895F894FFCF71
:1005D8004572726F72210044697374616E6365209D
:0805E8003D200020636D0000BE
:00000001FF
